:020000041000EA
:1000000000B5324B212058609868022188439860DF
:10001000D860186158612E4B002199600221596106
:100020000121F02299502B49196001219960352056
:1000300000F044F80222904214D00621196600F024
:1000400034F8196E01211966002018661A6600F04E
:100050002CF8196E196E196E052000F02FF8012189
:100060000842F9D1002199601B49196000215960AB
:100070001A491B48016001219960EB211966A021F2
:10008000196600F012F800219960164914480160C1
:100090000121996001BC002800D000471248134993
:1000A000086003C880F30888084703B5996A0420EC
:1000B0000142FBD001200142F8D103BD02B5186610
:1000C0001866FFF7F2FF186E186E02BD00000240BE
:1000D000000000180000070000035F00212200005C
:1000E000F4000018222000A00001001008ED00E03C
:1000F00000000000000000000000000074B24E7A12
:1001000000200420F7010010C3010010C5010010F9
:10011000C1010010C1010010C1010010C101001097
:10012000C1010010C1010010C1010010C701001081
:10013000C1010010C1010010C9010010CB01001065
:10014000CD010010CD010010CD010010CD01001037
:10015000CD010010CD010010CD010010CD01001027
:10016000CD010010CD010010CD010010CD01001017
:10017000CD010010CD010010CD010010CD01001007
:10018000CD010010CD010010CD010010CD010010F7
:10019000CD010010CD010010CD010010CD010010E7
:1001A000CD010010CD010010CD010010CD010010D7
:1001B000CD010010CD010010CD010010CD010010C7
:1001C00000BE00BE00BE00BE00BE00BEEFF3058054
:1001D000103800BEF2EB8871182500103825001089
:1001E0003402001090A31AE700201F49086006C8D7
:1001F00081F3088810471D48006800282FD10DA4FE
:100200000ECC002902D000F012F8F9E71849194A7B
:10021000002000E001C19142FCD1174988471749ED
:1002200088471749884700BEFDE701C901C29A42C5
:10023000FBD3704738250010C00000209803002031
:1002400010280010000004200000042010280010D6
:10025000001004200010042000000000704709482E
:1002600001F0C0FC0047000008ED00E0000000D0F5
:10027000980300206C0800205D1A00100503001090
:10028000511B00105756000006005250ABB360538C
:10029000C824001006005250861C0302D824001007
:1002A000060052505422A29DE42400100500525032
:1002B000DE65F46810280010F8B5C04610B5064C8D
:1002C0002378002B07D1054B002B02D0044800E017
:1002D00000BF0123237010BD98060020000000001D
:1002E000B0230010044B10B5002B03D00349044881
:1002F00000E000BF10BDC046000000009C060020CA
:10030000B0230010F0B5C646204900B5204801F0E2
:100310006BFF0321042000F001F90321052000F008
:10032000FDF800220121042000F010F90022012133
:10033000052000F00BF900F0CFF8164B08251E0041
:100340009846283644460A2027684008291A002083
:1003500000F0A8F8380000F0B1F8676808343800F9
:1003600001F0D4FF4108691A012000F09BF8380021
:1003700000F0A4F8FA20C00000F0E6FD00F08CF8D0
:10038000B442DFD0206801F0C1FFDDE7A0860100A4
:1003900070030020442400100F230200F0B5DE4655
:1003A00057464E4645469A4313000824E0B50F25AC
:1003B00049B20B4385B023436D44DBB298462B70A2
:1003C000344B9626994600230027000101439A46A4
:1003D000B6002A000093484601330C43272101F060
:1003E0002DFF3000390000F09DFD04239B4643465D
:1003F0005A4613432B7053462A000093272101339A
:10040000484601F01BFF3000390000F08BFD4346E9
:10041000042293432B7053462A0000932721013373
:10042000484601F00BFF3000390000F07BFD5346D9
:10043000E4B22A002C70272100934846013301F0D2
:10044000FDFE3000390000F06DFD5B4623432B704C
:1004500053462A00009327210133484601F0EEFE5F
:100460003000390000F05EFD0422534694432C70A6
:100470002A00009327210133484601F0DFFE3000B7
:10048000390000F04FFD05B0F0BCBB46B246A946AE
:10049000A046F0BD7003002010B500210120FFF739
:1004A0007BFF10BD0B0010B5C033002800D1403BCE
:1004B0000021D8B2FFF770FF10BDC04610B5040090
:1004C0000078002806D001210134FFF765FF20786D
:1004D0000028F8D110BDC04610B500210320FFF759
:1004E0005BFF00210320FFF757FF00210320FFF7E8
:1004F00053FF00210220FFF74FFF00210620FFF7E6
:100500004BFF00212820FFF747FF00210C20FFF7B9
:1005100043FF00210120FFF73FFF10BD094A830080
:1005200094464022634410B51C68C0006240C02459
:1005300014408022520113431C60034B9C466044CC
:10054000416010BD04C00140004001400A4B8000E2
:100550009C4604236044002901D00C230821002A72
:1005600000D10B00026853400C221A4080235B012B
:10057000184302607047C04604C00140024B18682F
:100580008007C00F7047C04600C0064070B5EFF34B
:10059000108C72B60D4D2B68002BFCD0BFF35F8F13
:1005A0000724CB08C618C05C01230C40A3401C00E4
:1005B0000440034207D103433370BFF35F8F2C60C5
:1005C0008CF3108870BD100001F0C6FA2C0100D029
:1005D0000021044B044ABFF35F8F02C39342FAD158
:1005E0007047C046000100D0800100D0044A107856
:1005F000431CDBB2172B00D9102313707047C04681
:10060000D802002001238340002904D0034A13604C
:10061000034A13607047034A1360FBE780E200E07F
:1006200000E100E080E100E0024B10309B688000B8
:10063000C058704700ED00E070B50D00EFF3108674
:1006400072B60F4A1368002BFCD0BFF35F8F0D4BBF
:1006500010309B6884001B590B4A934203D09D4283
:1006600001D001F091FA074B9B681D51BFF35F8FDA
:10067000BFF35F8F0022024B1A6086F3108870BDB3
:10068000240100D000ED00E0CD010010F0B5DE4601
:1006900057464E464546E0B50C0083B0EFF310894F
:1006A00072B6584A1368002BFCD0BFF35F8F564BCD
:1006B0009A68030010339F00D559544A90469542DA
:1006C00032D0A54243D0524EAA1B2F2A2CD8012249
:1006D0008240924651464F4A12681140019151465C
:1006E0004D4A1160BFF35F8FEFF305829346002AF6
:1006F00033D101232A009A4393689C4208D177E0C2
:100700004B005B189B00F3189968A1422AD01A008D
:10071000062151560029F3DA019B002B19D05246CD
:100720003E4B1A603B4B1A60374B9B68DD51BFF361
:100730005F8FBFF35F8F0022324B1A6089F31088FE
:1007400003B0F0BCBB46B246A946A046F0BD1500BA
:10075000EAE75246304B1A60E6E79342C9D001F00F
:1007600013FAC6E706215956002921DB4A00501822
:10077000800034188046A0689860E079D87106201F
:1007800020569871002824DBA488F01A64052415EB
:1007900044440019E0240005400D240220439880C1
:1007A00052181F4B9200B6181A781970B271B3E73D
:1007B000594600290FD1FF3191711A49918018498A
:1007C0000A789A71184A9B1B5B415A43120D0A70B2
:1007D000A2E71648E3E7164A1649D21A083A500229
:1007E000400D01439980144952080A43DA8093E787
:1007F0000621515613000029B8DA5A46002AEAD1D8
:100800004546DCE7240100D000ED00E0CD010010FA
:10081000DC02002000E100E080E100E080E200E096
:100820006A08002001BDFFFFAAAA000001BD000068
:100830001603002000F0FFFF00F8FFFF70B5EFF394
:10084000058101240443EFF3108C72B6214A13682A
:10085000002BFCD0BFF35F8F1F4B05001F4AED1A22
:100860006D416A43120D1E4D8900AE6852B2765832
:10087000A6421CD00621595691421CD0122159562D
:10088000914222D01E215956914220D02A215956F8
:100890000324914210D0134B19781A708171BFF361
:1008A0005F8F00220B4B1A608CF3108870BDAB6811
:1008B0000D4C5C50EFE700246100091989005B18BA
:1008C000FF21997109499980E5E70124F4E70224A1
:1008D000F2E7C046240100D0DC020020AAAA0000F2
:1008E00000ED00E06A080020CD01001001BDFFFF0F
:1008F000054B064A1360064A136053609360D36049
:1009000013615361936170478080808000E400E050
:1009100004E400E0024B9C4661448900016070479A
:100920004000003410B50400FFF760FE0100200015
:10093000FFF7F0FFFF232371BFF35F8F10BDC046A9
:1009400010B50400FFF752FE01002000FFF7E2FFA0
:10095000FF23A380BFF35F8F10BDC04683680B48A1
:1009600010B5844661446244090112019A1859186D
:1009700054684B6801209C4201D802D00020C0B2CC
:1009800010BD12680B689A42F9D8F7E7FFFFFF0F16
:100990000A4B1968EFF3108072B60A68002AFCD07F
:1009A000BFF35F8F1B68BFF35F8F00221A6080F375
:1009B000108840BF002000217047C0465408002026
:1009C000F8B557464E464546DE46E0B599460CAB6F
:1009D0001C780DAB1B78060090469A460768002CE1
:1009E00011D1BC7B002C42D065003B682D19033D22
:1009F00059194B78BB73002B00D1FB7300238B700C
:100A00004B700B7004E065003B682D19033D5919CC
:100A1000B2682A4B94464246E3181B0163441A60AD
:100A20004A465A600A9A9A600B9ADA6000238B70E1
:100A30004B700B707B7B9B46002B2BD022005946C2
:100A4000B8687B6898473A68002816D05B465846D5
:100A50005B005B445519033BA870D118D35C002B95
:100A600000D06B705B460C707B73A34513D0F0BC59
:100A7000BB46B246A946A046F8BD5B465B005B4458
:100A8000033BD3189C705119525D002A00D05A7054
:100A90005B460B707C7342464B46307D00F0A2FBF8
:100AA000051E06D05346002B03D12100306800F00C
:100AB000BDFD0E9B002BDAD01D70D8E7FFFFFF0FA6
:100AC000F0B5DE4657464E4645460023E0B58BB0AE
:100AD0000893674B8200D45800239B46099000F08E
:100AE00021FB626806000F00EFF3108572B61368F1
:100AF000002BFCD0BFF35F8F23689C465B7B99463D
:100B0000002B00D169E0A2685A4B90464B441B0170
:100B1000984443461A685B6810001900801BB9416D
:100B2000002900DC63E0099800F05CFB0023002250
:100B3000984600230692079300239A466368BFF302
:100B40005F8F5A461A6085F310885346002B08D1F0
:100B50000028C4D10BB0F0BCBB46B246A946A046A3
:100B6000F0BD089B414618024B461843D0476268C7
:100B700006000F00EFF3108572B61368002BFCD04F
:100B8000BFF35F8F002F50DB33003B4302D023695C
:100B9000002B61D12368D97B002907D04A00521865
:100BA00019688C4649466244033A51709A7B002A80
:100BB00001D14A469A734A46DA734B46E168013BD3
:100BC000CA5C0132CA545B4623616368BFF35F8F1E
:100BD0005A461A6085F3108881E700230022984660
:100BE000002306920793002300209A46A6E70029D7
:100BF00002D1002800D096E70021604600F094FC66
:100C000043461A685B680692079343469B689A4678
:100C10004346DB689846E3684B44013B1B780893E6
:100C20001B0203432361002088E72369002BB1D016
:100C3000069A079B921BBB41002B15DB594604917A
:100C400001210391494602914146019151462000FC
:100C50000091FFF7B5FEB6E700F064FA32003B0002
:100C600012184B41002BE9DA0122034B5242E5E70F
:100C700038080020FFFFFF0FFFFFFF7F10B5144C67
:100C80006368002B04D00A211248FFF743FE10BD11
:100C90002300114A1021206800F060FB032000F0BF
:100CA00035FA032000F008FB03200C4900F054FA49
:100CB000FFF79CFC0A4B9C4603232375D0231B069D
:100CC0001B6860446375074B80006060DC60DAE796
:100CD00024030020540800205D090010C10A001000
:100CE0004000003438080020F0B54E464546DE4648
:100CF0005746E0B585B0019310AB1B78060003930F
:100D000000239946984600927268EFF3108B72B6F2
:100D10001368002BFCD0BFF35F8F3568AC7B002CD1
:100D20003DD067002B683F19033FDB195A78AA733F
:100D3000002A00D1EA73B168474A8C4600980199AD
:100D4000A21812016244106051600E9991600F99CF
:100D5000D16042469A705A701A706B7B9A46002B8B
:100D600067D022001900A8686B6898472A68002895
:100D700052D0534650465B005344D719033BB870DA
:100D8000D118D35C002B00D07B7053460C706B7372
:100D900054454FD0F3681B19013B187800E0002040
:100DA0007368BFF35F8F42461A608BF31088002C84
:100DB0004FD04B46002B08D10002204305B0F0BCB9
:100DC000BB46B246A946A046F0BD039B002B3ED0D1
:100DD0000E9B00200F999847030004000D000B4361
:100DE00035D000290ADA009A019B121BAB41009210
:100DF0000193002B0ADB039B994685E700F092F9EB
:100E000024184D4100940195002DF4DA0123134C70
:100E10005B4200930194EEE753465B005344033B6F
:100E2000D3189C70D119D25D002A00D05A70534655
:100E30000B706C73307D009A019B00F0D3F98146F2
:100E40000028A7D02100306800F0F0FBA2E70020C6
:100E5000B4E701204042B1E7FFFFFF0FFFFFFF7F34
:100E6000F0B504000D0006267642F717C64636197F
:100E70006F4100B584B08F4214D811D000F052F900
:100E800032003B00121A8B41002B15DC002B3ED0A8
:100E90002000290000F050F904B080BCB846F0BD35
:100EA0008642EBD90026002700F03CF932003B00D7
:100EB000121A8B41002BE9DD002302930193154B9D
:100EC0003200009314483B00FFF70EFF0028DFDBE1
:100ED00000239846BC46114A114F7B6A9C4504D8B2
:100EE000B96A8E42D4D99C45D2D11168EFF31080F3
:100EF00072B60B68002BFCD0BFF35F8F1368BFF393
:100F00005F8F4146196080F3108820BFE5E7002A13
:100F1000BED0D1E79109001024030020540800201E
:100F20000040054070B504000D0000F0FBF800190A
:100F30006941002902DBFFF793FF70BD01200149E1
:100F40004042F8E7FFFFFF7F70B5060000F0EAF8C7
:100F5000FA2204000D00002330000021920000F06E
:100F6000F9FE00196941002902DBFFF779FF70BD26
:100F7000012001494042F8E7FFFFFF7FF0B5EFF3A2
:100F80000583CE46474680B505000C0085B0002B92
:100F900012D02C4A0020536A9C4203D8926A013036
:100FA000AA4204D305B0C0BCB946B046F0BDE01AB1
:100FB000421E9041C0B2F5E7234E02930193234BAA
:100FC0000200009330000B00FFF78EFE031EE0DDF1
:100FD00020BF7168EFF3108772B60A68002AFCD050
:100FE000BFF35F8FDAB294463068427B62451DD012
:100FF000FF221A40510089460168914488464946BB
:10100000414403398978002913D0F1681B0A8846C6
:101010004244013A1278DBB29A420FD07368BFF3B0
:101020005F8F00221A6087F31088B2E7FF221A4010
:10103000EBE732699342F1D13161EFE7614600F0AD
:10104000F5FAEBE700400540240300209109001069
:10105000F0B5EFF30582D6464F4646461000C0B5C0
:101060001038EFF3108872B6214C2368002BFCD0A7
:10107000BFF35F8F0123190081401E4D1F0069637C
:10108000AA461D4D29601D4D2E78AC463500C54041
:101090002F402B4209D1BFF35F8F276088F3108860
:1010A000E0BCBA46B146A846F0BD5346144D5F6A4F
:1010B00083005D59AF420ED3124A8E439B5862465D
:1010C0001670BFF35F8F0022226088F31088002B18
:1010D000E6D09847E4E70C4B92009C4662441368C4
:1010E0001360BFF35F8F0023236088F31088D7E776
:1010F000280100D0004005403C7005406B080020EE
:1011000058080020B4060020D03F054010B501006B
:10111000024A0348FFF73AFA10BDC0466C2400109B
:1011200069080020034B596A0A00986A596A8A4282
:10113000FAD1704700400540064A536A9942FCD8EC
:1011400007D1044B02E05A6A914202D19A6A824264
:10115000F9D370470040054070B504000D00EFF36F
:10116000108672B61A4A1368002BFCD0BFF35F8F4B
:10117000002D1BD02000FFF757FA164981420AD0F4
:101180002000FFF759FA01212000FFF73BFA012365
:10119000A340114A1360114BA400E550BFF35F8FC9
:1011A00000220B4B1A6086F3108870BD0B4BA20017
:1011B000D5500122A2400A4920000B7893430B70BE
:1011C0000449FFF763FA00212000FFF71BFAE5E767
:1011D000280100D05110001038600540B4060020EE
:1011E0006B080020F0B54F46D6464646C0B507000E
:1011F0002C4C616A0D00A66A616AA942FAD18B4241
:1012000008D805D00120E0BCBA46B146A846F0BDDA
:10121000B242F7D9EFF3108A72B623480168002969
:10122000FCD0BFF35F8F0125BD4020491D4C88468F
:10123000097889462943C9B28C4641466046087000
:10124000391D1B48890065630A51B9000B50216A9A
:101250000020294219D0616A0800A66A616A8142A9
:10126000FAD18B4219D801D1B24216D8CC4516D04A
:101270000C4B1F201D625D6301230740BB400D4ADC
:101280001E38136043464A461A70BFF35F8F002230
:10129000054B1A608AF31088B5E70020F5E70120B6
:1012A000F3E7C04600400540280100D06B0800204D
:1012B0005808002080E200E0EFF3108C72B60A4973
:1012C0000B68002BFCD0BFF35F8F01238340074ADC
:1012D0000748136202789A430270BFF35F8F0023BE
:1012E0000B608CF310887047280100D00040054047
:1012F0006B08002070B5050014001600002915D0F9
:101300000C00002A12D080686B6898472968002872
:101310000ED073009B196200033B1219CB18033ADD
:101320009C7088188A5C002A15D10670200070BD58
:1013300063001B197200033B9219CB18033A9E708D
:1013400088188A5C002A02D104703400EEE75A70D3
:1013500004703400EAE75A700670E7E730B583603E
:101360000023CCB243730133047342608373C473AC
:101370000D000068012C06D9421C0133DBB213704A
:1013800003329C42F9D1FF2129404B005918002318
:1013900040180338437030BDF8B5CE4647460600C6
:1013A0000C0080B5002907D04D0003686D18033D7F
:1013B0005A195778002F04D12000C0BCB946B04656
:1013C000F8BD7900C91903398846434459788946DC
:1013D00000215970517073683A0021008068984765
:1013E0003368002814D042469A18947059195B5DEE
:1013F000002B00D053700F70270049463000FFF7D4
:10140000CBFF390002003000FFF774FF0400D3E780
:10141000424641465D19AF709A185B5C002B00D0C4
:101420006B701470E9E7C046F0B557464546DE4696
:101430004E46E0B50D006B0001685B19DF1E04002D
:10144000C85D83B00192CA19002850D043001B1810
:10145000033BCB185E78B446002E1AD1019E002EB5
:1014600042D0E67B002E04D073009B19CB18033BBF
:101470005D70A37B002B00D1A573E57300282FD1ED
:101480000023537003B0F0BCBB46B246A946A04649
:10149000F0BD72006244033A89184A7890460022EF
:1014A0004A7091465A70010032002000FFF722FF77
:1014B00043468246002B07D05B0021684344033B30
:1014C000CB185A78002A16D1424651462000FFF721
:1014D00011FF2168019BCA19002BC2D10028CFD06F
:1014E00043001B18033BCB1800219970C8E7019BF0
:1014F000002BB6D1C4E7500080180338091848788B
:10150000834648464870587041462000FFF7F2FE77
:10151000594680462000FFF73FFF41460200200069
:10152000FFF7E8FE8046CFE7F0B557464546DE4672
:101530004E46E0B583B00191457B04006B00006826
:101540005B19DF1EC15DC219002952D04B005B1828
:10155000033BC3185E78B446002E1CD1019E002EBA
:1015600044D0E67B002E04D073009B19C318033BC4
:101570005D70A37B002B00D1A573E573002931D1E9
:10158000002328005370617303B0F0BCBB46B24621
:10159000A946A046F0BD72006244033A8018427822
:1015A00090460022427091465A7020003200FFF7A8
:1015B000A1FE43468246002B07D05B0021684344CE
:1015C000033BCB185A78002A17D1424651462000D7
:1015D000FFF790FE019B01002068C219002BC0D1CB
:1015E0000029CDD04B005B18033BC3180020987036
:1015F000C6E7019B002BB4D1C2E750008018033826
:10160000091848788346484648705870414620007B
:10161000FFF770FE594680462000FFF7BDFE4146A9
:1016200002002000FFF766FE8046CEE770B504009A
:1016300000292CD0437B8B422ED0056848004018EF
:10164000033828188278002A21D053009B18033BC6
:10165000EA5CEE188A4202D11BE0002A08D053004F
:101660009B18033BEB185A788A42F6D142785A709D
:1016700000230122837043702000FFF7D5FE617BB9
:1016800002002000FFF736FE6073012000E000201A
:1016900070BD43783370EBE701221900FFF7C4FEF9
:1016A00060730120F4E7C04630B50C2083B000F031
:1016B000B9F9FEF763FF00280ED0994B994A1A60DA
:1016C0005A609A60DA601A615A619A61DA611A6244
:1016D000954A5A6203B030BD944CA06700F0AAF955
:1016E0000122934B1A60636C012BFCD10322914BB6
:1016F0001A608E4A936B012BFCD1013301218E4A73
:101700008E480093043300F03DF905238C4A009382
:1017100001218C4800F036F98B4B5A68FF2A02D819
:10172000802252005A6080227D4C824B2169120136
:10173000854D1A60002907D0606900F085FA431CC6
:101740005800C0180338FDD2E0217F4B02201A68F0
:101750001140802252012A43116019684840032138
:101760000140116004219A681142FCD0802280213E
:1017700092012A4309011160802252005A60734B82
:101780002361734B5968FF2900D85A600321684AC6
:101790006F4B116002399A681142FCD0E0201A6840
:1017A0001040802252011A431060186848400321FB
:1017B00001400220116066498A681042FCD08022F4
:1017C00092011343802212011A608022614B520061
:1017D0004A606361604B5968FF2900D85A608022D3
:1017E0005E4BE16912015C4D1A60002907D0606907
:1017F00000F02AFA431C5800C0180338FDD2E0223A
:1018000055490B681A4080235B012B431A608023E3
:1018100080229B012B4312011A608022414B52000F
:101820004A60E3614E4B5968FF2900D85A60802214
:101830004C4B216A12014A4D1A60002907D0606999
:1018400000F002FA431C5800C0180338FDD2E02211
:1018500043490B681A4080235B012B431A608023A5
:1018600080229B012B4312011A60802380225B009F
:101870004B602C4BD20223623B4B5968914200D201
:101880005A608022394B616A1201374D1A60002973
:1018900007D0606900F0D8F9431C5800C01803381D
:1018A000FDD2E02230490B681A4080235B012B43B4
:1018B0001A60802380229B012B4312011A6080232F
:1018C000DB024B60184B6362294B5A68FF2A02D82F
:1018D000802252005A608022264BA1691201244DB9
:1018E0001A60002907D0606900F0AEF9431C580067
:1018F000C0180338FDD2E0221D490B681A4080232E
:101900005B012B431A60802380229B012B43120131
:101910001A6080235B004B600E4BA361DAE6C04681
:10192000C4070020006CDC021BB7000000800040F0
:101930003CB0004030B00040002F685900800240A9
:10194000008C864700C0024030800040001BB7007A
:101950003C800040405973075480004054B0004020
:101960006080004060B000406C8000406CB000407F
:101970004880004048B00040014B8000C05870478C
:10198000C4070020F8B5040021481D0017000E0010
:1019900000F05AF90100380000F056F9069B2904BE
:1019A0001B0319432368002B20DB1A4B1A4DE21846
:1019B00053425A4180235B019C461203174B6244F9
:1019C0001A60174B1A601700AB689F43FBD1C02207
:1019D000231D92011A4321232660A060136023680F
:1019E000002BFCDA0823E1601360F8BD3F23226876
:1019F0001340B342D9D1A3681B051B0D8342D4D138
:101A0000EE22E368D20213408B42CED1EDE7C0460E
:101A1000001BB7000040FDBF00C0004000E00040D8
:101A200000F000408023024A9B000343D3627047CA
:101A300000800540AA23064A1B0113602F23054995
:101A4000D360054B19605368002BFCDA7047C04621
:101A50000040024000B0FA00006002402C4B2D4ACA
:101A600070B51A602C4A2D4B2D491A6014008B68F2
:101A70009C43FBD12B4D2C4EB54208D2013E761B28
:101A8000B60808CD984723000134B342F9D1FFF7D7
:101A90000BFE264A214B1A60214A9368DB43DB0187
:101AA000DD09002BF9D14022214B224C224E9A67AE
:101AB0005A671A67DA66B44208D223682000002BFE
:101AC00020D00834FEF73CFFB442F6D31B4E1C4C2A
:101AD000C022A168300000F0ADF9A660FEF778FDE5
:101AE000FEF706FFFFF7CAF8164C174EB44208D2AD
:101AF000013E361BB60808CC98472B0001359E42A4
:101B0000F9D170BD0834FEF70DFFB442D5D3DDE73F
:101B100000E00040BFCDFBFEFE7F3C0000F0004037
:101B200000C000408003002090030020FFFFFF0161
:101B300000F0014078030020800300200000002016
:101B400000ED00E0900300209803002000BEFDE7B8
:101B500010B5FFF7FBFFC0460FB400B5084883B0CF
:101B600000F09AFA049B002B07D005A918000191F8
:101B700000F018F8034800F08FFA0120FFF7E6FFA5
:101B800090240010A024001010B50148FFF7E4FFD6
:101B9000A424001010B5002800D110BD00F030FAC8
:101BA000FBE7C04610B5094A0300146884B0002C56
:101BB00008D0012200910648524203A9A047012003
:101BC00004B010BD00F068FA0020F9E734080020E6
:101BD000951B001001480421014B184750030020B9
:101BE000051C0010142310B50100188804331B884D
:101BF000984710BD162310B50100188802331B88C2
:101C0000984710BDF8B54746CE4680B50F1E19D08F
:101C100014239946043304000025012698464B46B8
:101C20001888434621681B88984701C4431E984181
:101C3000013540420640AF42F1D13000C0BCB94648
:101C4000B046F8BD0126F8E7114A936F9B0813D2FE
:101C500010665166002905D0FFE7FFE7FFE7516FE7
:101C6000106F704704B5002801D00020C04300F079
:101C70008FFB002104BDC046F0B5146E556E576F42
:101C8000166FFFF7E5FF1466556657671667F0BDD8
:101C9000000000D0132370B51D78012D15D010DD84
:101CA0001C48FFF7A7FF1C4C01008022200000F019
:101CB000C1F8022D06D01948FFF794FF184B1860A1
:101CC00070BD154C174BA364F5E7164B124C2360FF
:101CD0006360A360E36023616361A361E3612362E6
:101CE0006362A362E36223636363A363E3632364C6
:101CF0006364A364E36423656365A365E3652366A6
:101D00006366A366E36623676367A367E367A36409
:101D1000D1E7C04653440000980400204C33000033
:101D200050080020291D001007B5604601880A0AE6
:101D30000230DF2AFAD1C9B2820804D3028840886F
:101D40000004104300E00068014A5050039007BDB2
:101D50009804002051434343C9188C46110C83B2A8
:101D60004B4310B4040C614392B280B250436243BF
:101D70001C041B0C001910BC59411304120CC01890
:101D80005141614470470000132310B512481C787C
:101D9000FFF730FF0100012C0AD003DD80220F483D
:101DA00000F048F80E48FFF71DFF0E4B186010BDFD
:101DB0000A4C5422200000F03DF80B4B6365A365EC
:101DC000E36523666366A366E36623676367A367C9
:101DD000E3672362E361E5E75346000098050020CE
:101DE0004C33000050080020ED1D001007B5604680
:101DF00001880A0A0230DF2AFAD1C9B2820804D364
:101E0000028840880004104300E00068014A5050F6
:101E1000039007BD9805002001480421014B184795
:101E200060030020051C0010014B1B6818470000D0
:101E300060030020014B5B6818470000600300202E
:101E4000030010B5080011001B68984710BDC0467C
:101E5000F0B546464F46D646C0B5437D80460E0097
:101E60001700002B46D0002A3FDD4B1E9946244B1D
:101E70000125002400209A460DE04B461B5D0D3BDA
:101E80005A425341325DDBB20A2A0BD02B00013497
:101E900001359F421ADD002CEFD14346325D1B7D98
:101EA0000A2AF3D1002BF1D1A04204DA4346211AC9
:101EB0001B6830189847434650461B6802219847D4
:101EC000013428002B0001359F42E4DC874204DD09
:101ED0004346391A1B6830189847F619013E337883
:101EE0000D3B5A42534142461375E0BCBA46B146D7
:101EF000A846F0BD0368110030009847F5E7C046DA
:101F000014250010F0B5DE4657464E464546E0B56E
:101F100085B017001C0006000D00FFF703F9002331
:101F2000304A12184B41002B58DB2F4908008A46D3
:101F300000F036FA01906B1C03D1300000F0E6F996
:101F40000500002C25D1294B9846294B1C68002CF4
:101F500015D0002F20D1274F02E02469002C0ED08D
:101F60002368002BF9D03B68002B01D0A342F4D1A9
:101F700020002A003100C0472469002CF0D1019BC9
:101F8000002B27D105B0F0BCBB46B246A946A046FF
:101F9000F0BD194B9846D8E7164B994602ABDF1DAA
:101FA0000A239B4602E02469002CE8D02368002B1A
:101FB000F9D04B461B68002B01D0A342F3D12A0075
:101FC00031002000C0475B460122390020003B70F1
:101FD000C047E8E7504600F0D3F9D3E70122074BAA
:101FE0005242A2E740420F0078030020511E001029
:101FF0002C08002030080020411E0010FFFFFF7F4A
:10200000F0B5CE46474680B583B06B460600DD1D71
:102010002870FFF787F800231A4A12184B41002B4B
:102020002BDB19490800884600F0BAF9174B8146A6
:102030001C68002C14D0164F02E02469002C0FD02D
:102040002368002BF9D03B68002B01D0A342F4D1C8
:10205000200001222900FFF7FBFE2469002CEFD1AC
:102060004B46002B05D1300003B0C0BCB946B0468A
:10207000F0BD404600F084F9F5E70122054B5242DD
:10208000CFE7C04640420F00780300202C08002014
:1020900030080020FFFFFF7F70B5040000F036F924
:1020A00000230100050001222000FFF72BFF084B51
:1020B0001C68002C06D06368002B05D09847246963
:1020C000002CF8D1280070BD2469002CF3D1F9E769
:1020D0002C08002010B5024800F004F810BDC046DE
:1020E0004808002030B5002589B0040009220021ED
:1020F00001A80095FFF798FE0922002105A8049584
:10210000FFF792FE4B236A466846137004A90D221E
:1021100000F02EF91521082220006944FFF78AFEFD
:1021200009B030BDF8B5DE4657464E4645468346B3
:10213000E0B505200C00FFF71FFC06006008210039
:102140008019FFF781FD4300984680440700052170
:102150004046FFF779FD3B1A9A46204B81467000B6
:1021600080199C4234D81E49FFF76EFD451C5B4622
:102170001C680023E36622680433534006221A4099
:1021800080235B0123431A605346E3614B4623627D
:10219000434601204F2B03D950214046FFF754FD01
:1021A000A0232200E0508023E06F7C3245402D04C4
:1021B0005B0113432D0C1D60012339003000E366E1
:1021C000FFF742FDF0BCBB46B246A946A046F8BDAB
:1021D0000449FFF739FD451CC9E7C0463F420F00DF
:1021E0008096980040787D01104A70B5821A53425B
:1021F0005A41072352429A430D4B10321A600D4B3D
:102200000D4C1A601500A3689D432B1EFAD166245D
:102210000268FF340571D5661460633C8833FF3C67
:10222000D5639563D450FFF77DFF70BD7003002028
:1022300000E0004000F0004000C00040F0B557460C
:102240004E464546DE4690460022E0B583B01E006D
:102250000CAB1B7884469A460368DA6601325960F3
:10226000DA66002E4FDD51464A405202019280222A
:10227000914632008025771E002046461021904668
:10228000AD000024002804D162461479621E9441F6
:10229000A40200229346B8421AD0325C22435C4624
:1022A00022431A615A6B1142FCD04A469C58002CBA
:1022B00011D1B84222D001308045E2D16346524666
:1022C0001A7103B0F0BCBB46B246A946A046F0BDA9
:1022D000019A9346E1E75A6D012293465A6B2A42CE
:1022E000FCD01A6E5A46002AE5D0002C03D0E30732
:1022F00001D42307E2D402204042DFE75246002AFD
:10230000D9D1D346EAE70020D8E7C04610B5830705
:102310000AD00300032102E001330B4205D01A78F2
:10232000002AF9D1181A10BD030019680C4A0D4C87
:102330008A188A4322420FD15968094A04338A18FD
:102340008A43224208D15968054A04338A188A43CD
:102350002242F1D000E001331A78002AFBD1E1E7F4
:10236000FFFEFEFE80808080F8B5C04600000000C1
:1023700001B40248844601BC604700BFFD01002053
:1023800001B40248844601BC604700BF5D010020E3
:1023900001B40248844601BC604700BFC10200206E
:1023A00001B40248844601BC604700BFC100002060
:1023B000525032303430616161610000526173709B
:1023C00062657272792050690000000041206272DB
:1023D000616E64206E6577006D6963726F636F6E06
:1023E00074726F6C6C6572005477696E20636F72E3
:1023F00065204D300000000046756C6C2043205372
:10240000444B00004D6F726520706F7765722069D4
:102410006E000000796F75722070726F647563745E
:10242000000000004D6F7265206265616E730000F0
:102430007468616E204865696E7A21000800525008
:102440001A520A00B0230010BC230010CC23001045
:10245000D8230010E8230010F823001004240010F3
:1024600014240010242400103024001048617264E9
:102470007761726520616C61726D20256420616CEA
:10248000726561647920636C61696D656400000048
:102490000A2A2A2A2050414E4943202A2A2A0A0081
:1024A0000A000000486172642061737365727400F1
:1024B00052656C6561736500626F6F74325F77326D
:1024C0003571303830000000312E352E31000000DB
:1024D0007069636F000000004932435F6469737084
:1024E0006C61790046656220313720323032340029
:1024F00006005250BBFF3CB6D024001006005250DC
:10250000E182887FB824001006005250D3F0754253
:08251000B02400100D0A0000C8
:102518003C240010AC020010A0020010940200102D
:10252800F024001088020010FC2400100825001078
:10253800F0B5C646150000B504001E000268EFF3AA
:10254800108172B61368002BFCD0BFF35F8F042391
:10255800E356002B2DDB2268BFF35F8F002010604D
:1025680081F31088D0221206127852B290469A420D
:1025780003D1002080BCB846F0BD00270BE02368DB
:10258800BFF35F8F1F6081F310882800310000F0CF
:10259800D3F80028EDD12268EFF3108172B61368E2
:1025A800002BFCD0BFF35F8F23797F2BE7D94346FD
:1025B80002E0D0231B061B6823712368BFF35F8FDB
:1025C80000221A6081F310880120D3E70268EFF334
:1025D800108172B61368002BFCD0BFF35F8FFF2306
:1025E80003710368BFF35F8F00221A6081F31088BC
:1025F80040BF7047084810B50378002B0AD18023E4
:102608000649074A5B051C68CC5004339342FAD14B
:102618000123037010BDC04668080020C4060010DE
:102628000001001010B5024B0133984710BDC04699
:10263800C4060020034B1A68C0239B009343024A38
:10264800136070470C8001400C900140054B1A68DC
:1026580080239B005340C02292001340024A13601B
:102668007047C0460C8001400C9001401423F0B51F
:10267800D6464F4646469A46814618880433C0B522
:1026880098460E001B8827491400984753460700B0
:102698001888434624491B889847534605001888DC
:1026A800434622491B8898478046FFF7A3FFB8474F
:1026B800A847FFF7CBFF002C1BD0C021220008271A
:1026C800022049053D008B6A1D4018420BD0002CA2
:1026D80009D0131B0D2B1FD84B461B78013C0B66EA
:1026E80001239C46E1442300002D0CD11343002B09
:1026F800E8D1FFF79FFFC047FFF794FFE0BCBA4659
:10270800B146A846F0BD002AF1D00B6E013A3370ED
:10271800130001362343EAE7002DD3D0002AD1D095
:10272800F3E7C0464946000045580000464300000C
:102738007047C0460000000001B40248844601BC4E
:10274800604700BF7D0F001010000000000000006F
:10275800000001000000000000000000000002006E
:10276800000000000000000000000300000000005E
:10277800000000000000FF000000000001B54868EC
:1027880001318E460047704609380149884701BD26
:102798003D0800103C0300200000000098030020C2
:1027A800EC0700200000000000000000FC070020EB
:1027B8000000000000000000100000000000000001
:1027C800503300004C3300005433000052330000F3
:1027D8004D5300004D4300005334000043340000C3
:1027E800004004400000000000000000000000005D
:1027F800191E0010D51B0010951C0010891D001013
:08280800E5020010D5200010CC
:04000005100001E9FD
:00000001FF
